:100000000C9456050C949D050C949D050C942F1989
:100010000C949D050C949D050C949D050C949D05D8
:100020000C949D050C949D050C94532D0C94272E37
:100030000C9480260C949D050C949D050C949D05B4
:100040000C949D050C949D050C949D050C949D05A8
:100050000C949D050C94E6260C949D050C949D052E
:100060000C949D050C949D050C949D050C949D0588
:100070000C949D050C949D050C949D050C949D0578
:100080000C949D050C949D050C949D050C949D0568
:100090000C941A180C949D050C949D050C949D05C8
:1000A0000C949D050C949D050C949D05000000008A
:1000B00000003E5B4F5B3E003E6B4F6B3E001C3EC4
:1000C0007C3E1C00183C7E3C18001C577D571C00D1
:1000D0001C5E7F5E1C0000183C180000FFE7C3E7B1
:1000E000FF00001824180000FFE7DBE7FF0030489E
:1000F0003A060E00262979292600407F05050700CB
:10010000407F05253F005A3CE73C5A007F3E1C1CBF
:100110000800081C1C3E7F0014227F2214005F5F31
:10012000005F5F0006097F017F00006689956A0015
:1001300060606060600094A2FFA2940008047E04E6
:10014000080010207E20100008082A1C0800081C47
:100150002A0808001E10101010000C1E0C1E0C00A7
:1001600030383E383000060E3E0E0600000000001B
:10017000000000005F000000000700070000147F7F
:10018000147F1400242A7F2A1200231308646200BB
:10019000364956205000000807030000001C224189
:1001A00000000041221C00002A1C7F1C2A000808B5
:1001B0003E080800008070300000080808080800A9
:1001C0000000606000002010080402003E51494514
:1001D0003E0000427F4000007249494946002141EB
:1001E000494D33001814127F10002745454539004A
:1001F0003C4A494931004121110907003649494922
:100200003600464949291E00000014000000004045
:1002100034000000000814224100141414141400C7
:100220000041221408000201590906003E415D59AF
:100230004E007C1211127C007F49494936003E4134
:10024000414122007F4141413E007F4949494100EF
:100250007F09090901003E41415173007F080808E8
:100260007F0000417F4100002040413F01007F08A6
:10027000142241007F40404040007F021C027F006A
:100280007F0408107F003E4141413E007F0909097B
:1002900006003E4151215E007F091929460026498A
:1002A0004949320003017F0103003F4040403F00C5
:1002B0001F2040201F003F4038403F0063140814B7
:1002C00063000304780403006159494D4300007F33
:1002D00041414100020408102000004141417F00DB
:1002E00004020102040040404040400000030708AF
:1002F00000002054547840007F284444380038449B
:1003000044442800384444287F003854545418008A
:1003100000087E0902001824241C78007F080404C9
:10032000780000447D4000002040403D00007F10E8
:100330002844000000417F4000007C0478047800DD
:100340007C08040478003844444438007C18242491
:100350001800182424187C007C0804040800485461
:100360005454240004043F4424003C4040207C00BA
:100370001C2040201C003C4030403C0044281028F9
:1003800044004C9090907C004464544C440000081D
:1003900036410000000077000000004136080000F0
:1003A0000201020402003C2623263C00000000005B
:1003B000000000000000000000000000C0E0F0F8B5
:1003C000F81800C0F0FCFEFFFFFFFFFFFFFF7E00FC
:1003D000000000000000000080C0E0E0E0E0E0E09D
:1003E000E0E0C0800000000080C0E0E0E0E0E0E08D
:1003F000E0E0C080000000E0E0C0C0E0E0E0E0003D
:1004000000E0E0C0C0E0E0E0E0E0C080000000000C
:1004100080C0E0E0E0E0E0E0E0E0C080000000005C
:1004200000000000000000000000E0F0F0F0E0EC50
:10043000EEF7F37020007C7C7C7E007E7E7E7F7FEA
:100440007F000080C0E07E5B4F5BFEC00000C0000C
:10045000DCD7DEDEDED7DC00C000000000000000DC
:10046000000000000000000000000000000000008C
:100470000000000000F8FCFEFFE000FFFFFFFFFFB0
:10048000FF80FFFFFFFFFFFFFFFFFF1F07010000CF
:1004900000000000000000FFFFFF810000000000DE
:1004A0000081C3C3C30000FFFFFF81000000000004
:1004B0000081FFFFFF0000FFFFFF010000000000C0
:1004C00000FFFFFF010000000001FFFFFF0000FF31
:1004D000FFFF9D1C1C1C1C1C1C9DDFDFDF0000009F
:1004E000000000000000000000000F1F3F7F7F7F22
:1004F0007F7F3F1E0C001F1F1F3F003F3F3F7F7F3E
:100500007F00307B7F7830202030787F3B000300F5
:100510000F7F0F0F0F7F0F0003000000000000008F
:1005200000000000000000000000000000000000CB
:100530000000000000030F1F3F3F3F3F1F1F3F3FD2
:100540007F7F7F3F3F1F3F7F7F7F7F7C7878381C96
:100550000F0000000000000001030707070707075E
:10056000070703010000000001030707070707074B
:100570000707030100000007070700000000000054
:100580000007070700000000000007070700000041
:10059000010307070707070707070301000000001B
:1005A000000000000000000000000000000000004B
:1005B000000000000000000000000000000000003B
:1005C000000000000000000000000000000000002B
:1005D000000000000000000000000000000000001B
:1005E0000000000000000000000000002B001400CC
:1005F0001A00080015001700E000040016000700AC
:1006000009000A00E1001D001B000600190005009A
:10061000000000000000E300095D2C002A00130028
:1006200012000C0018001C00340033000F000E00F4
:100630000D000B00E50038003700360010001100F7
:10064000000000000000E6000A5D280029001E00EE
:100650001F00200021002200E00000000000000038
:1006600000000000E10000000000000000000000A9
:10067000000000000000E300095D2C002A002700B4
:100680002600250024002300000000004F00520037
:1006900051005000000000000000000000000000B9
:1006A000000000000000E6000A5D280029001E028C
:1006B0001F02200221022202E000000000000000D0
:1006C00000000000E1000000000000000000000049
:1006D000000000000000E300095D2C002A00270252
:1006E00026022502240223023500310230022F02A5
:1006F0002E002D003502310030002F002E022D0279
:10070000000000000000E6000A5D2800005C0D5DAE
:100710000000000000000000C25CC55CC75CC95C52
:1007200000000000C35CC65CC85CCA5C000000003E
:10073000000000000000E300095D2C000000000044
:1007400000000000000000000000000000000000A9
:100750000000000000000000000000000000000099
:10076000000000000000E6000A5D280000047F3F52
:100770001F643214643214783C1E1E140A052223AE
:10078000252628292A2C2D2F3032333536383A3B6E
:100790003D3E4042434547494A4C4E5051535557C0
:1007A000595A5C5E6062646668696B6D6F717375DF
:1007B00077797B7D7F81838587898A8C8E909294DF
:1007C00096989A9C9E9FA1A3A5A7A8AAACAEAFB1EC
:1007D000B3B4B6B8B9BBBCBEBFC1C2C3C5C6C7C936
:1007E000CACBCCCDCED0D1D2D2D3D4D5D6D7D7D8F0
:1007F000D9D9DADADBDBDBDCDCDCDCDCDDDDDDDD42
:10080000DCDCDCDCDCDBDBDBDADAD9D9D8D7D7D649
:10081000D5D4D3D2D2D1D0CECDCCCBCAC9C7C6C500
:10082000C3C2C1BFBEBCBBB9B8B6B4B3B1AFAEAC46
:10083000AAA8A7A5A3A19F9E9C9A98969492908EF1
:100840008C8A89878583817F7D7B79777573716FCA
:100850006D6B6968666462605E5C5A5957555351A6
:10086000504E4C4A4947454342403E3D3B3A38365C
:10087000353332302F2D2C2A292826252322FFAA72
:100880007F55400001010101010101010102020245
:10089000020202020202030303030303030304042C
:1008A00004040404040505050505060606060607F6
:1008B0000707070708080808090909090A0A0A0BAF
:1008C0000B0B0C0C0C0D0D0D0E0E0E0F0F0F101050
:1008D00011111112121313141415151616171718D7
:1008E0001819191A1A1B1B1C1D1D1E1E1F20202142
:1008F0002222232424252626272829292A2B2C2D89
:100900002D2E2F30313232333435363738393A3BA9
:100910003C3D3E3F404142434445464748494A4C9E
:100920004D4E4F50515354555658595A5B5D5E5F6A
:10093000616264656668696B6C6D6F707273757700
:10094000787A7B7D7E8082838587888A8C8E8F9162
:10095000939596989A9C9EA0A2A3A5A7A9ABADAF8C
:10096000B1B3B5B7BABCBEC0C2C4C6C9CBCDCFD176
:10097000D4D6D8DBDDDFE2E4E7E9EBEEF0F3F5F81F
:10098000FAFDFF0403300000002E0343006F0072E5
:10099000006E00650020004B006500790062006F6A
:1009A0000061007200640020002800630072006B88
:1009B000006200640029000000100366006F006FF1
:1009C000007300740061006E000000040309040954
:1009D000023B00020100A0FA09040000010301012A
:1009E00000092111010001224000070581030800D0
:1009F0000A0904010001030000000921110100019E
:100A0000224F000705820320000A12011001000096
:100A10000008EDFE6030010001020301050109023A
:100A2000A10185020901A100050919012905150087
:100A30002501950575018102950175038101050167
:100A4000093009311581257F95027508810609381D
:100A50001581257F950175088106050C0A38021558
:100A600081257F950175088106C0C005010906A191
:100A700001050719E029E715002501950875018191
:100A8000029501750881010507190029FF15002647
:100A9000FF009506750881000508190129059505CF
:100AA00075019102950175039101C00011241FBECB
:100AB000CFEFDAE0DEBFCDBF04B603FE27C08091E2
:100AC000320490913304A0913404B09135048730FE
:100AD000904BA740B04BD1F41092320410923304E3
:100AE000109234041092350414BE84B7877F84BFFB
:100AF0000FB6F894A895809160008861809360009B
:100B0000109260000FBEE0E0F8E3099512E0A0E06B
:100B1000B1E0E0E8F7E602C005900D92AC34B10711
:100B2000D9F724E0ACE4B2E001C01D92A233B207D1
:100B3000E1F70E94842A0C9482330C940000CF9336
:100B4000C82F88E70E94D817882311F0C0E00BC097
:100B500080E00E940B188111F9CF8C2F0E940B1896
:100B6000C1E08111F3CF0E94FF178C2FCF91089520
:100B7000CF93C62F0E949F05882321F08C2FCF9101
:100B80000C949F0580E0CF910895CF93C62F0E94CB
:100B90009F05882349F080E00E949F05882321F06B
:100BA0008C2FCF910C949F0580E0CF9108958EEA11
:100BB0000C949F058FEA0C949F050F931F93CF937E
:100BC000DF93EC018C010C5A1F4FD801ED91FC9181
:100BD000119760838D919C91119701968D939C93B1
:100BE0008C1B9D0B84359105B9F4BE016B5E7F4F64
:100BF0004FE350E0CE010E943B30CE01CF96F8018A
:100C00009183808345E150E060E270E0DF91CF9115
:100C10001F910F910C944D30DF91CF911F910F9147
:100C200008951F93CF93DF93EC01FC01EA5AFF4F25
:100C300081E080836A30B1F43297808191818C1B8E
:100C40009D0B65E170E00E94FB2F182F153120F0FD
:100C5000DF91CF911F91089560E2CE010E94DD05E2
:100C60001F5FF4CFCE01DF91CF911F910C94DD0572
:100C7000EF92FF920F931F93CF93DF937C01EB01D1
:100C8000FB0101900020E9F78F0101501109C01705
:100C9000D10738F0DF91CF911F910F91FF90EF9026
:100CA00008956991C7010E941106F1CFCF92DF929A
:100CB000EF92FF920F931F93CF93DF93CDB7DEB7E1
:100CC0007C010DB71EB7DB010D900020E9F7CD01C7
:100CD000861B970B01962DB73EB7281B390B0FB615
:100CE000F8943EBF0FBE2DBFADB7BEB711966D01D4
:100CF0007F936F9320E831E03F932F939F938F93DF
:100D0000DF92AF930E945B30B601C7010E943806A4
:100D10002DB73EB7285F3F4F0FB6F8943EBF0FBECA
:100D20002DBF0FB6F8941EBF0FBE0DBFDF91CF9140
:100D30001F910F91FF90EF90DF90CF900895CF9388
:100D4000DF93EC0144E550E060E270E00E944D303A
:100D5000FE01EC5AFF4FD183C083CA5ADF4F81E0B6
:100D60008883DF91CF9108957F928F929F92AF9267
:100D7000BF92CF92DF92EF92FF920F931F93CF9388
:100D8000DF938C010E94B02690934D0280934C0219
:100D90000E94DA0563E082E20E94C5058823C9F15A
:100DA0006DE781E20E94C505882399F188E70E94DA
:100DB000D81781112EC080E40E940B18811129C020
:100DC0007801480184E5880E911C96E0792E570140
:100DD000D12CF501C1915F01C79DE0011124C455DB
:100DE000DF4F86E0C82EFE0184910E940B18CA9442
:100DF0002196C110F8CFD394F5E1DF12EACF85E157
:100E0000E80EF11C8E149F0411F7F801EA5AFF4F07
:100E10001082DF91CF911F910F91FF90EF90DF90A3
:100E2000CF90BF90AF909F908F907F900C94FF17C2
:100E300086E493E00C94B4061F93CF93DF93C82FFE
:100E40000E94D2178EEA0E949F05811106C0C0E061
:100E50008C2FDF91CF911F91089560E885ED0E945E
:100E6000B8058823A1F36FE188EA0E94B8058823BA
:100E700071F360E083ED0E94B805882341F380E4BC
:100E80000E949F05882319F364E18DE80E94B8054C
:100E90008823E9F260E080E20E94B8058823B9F275
:100EA000CC2309F465C080EA0E949F05882379F26B
:100EB00080EC0E949F05882351F262E08AED0E9437
:100EC000B805882321F26FE881E80E94B8058823DD
:100ED00009F4BDCF61EF89ED0E94B805882309F4BC
:100EE000B6CF60E48BED0E94B805882309F4AFCF3C
:100EF00084EA0E949F05882309F4A9CF86EA0E940C
:100F00009F05882309F4A3CF8EE20E949F058823C2
:100F100009F49DCF8FEA0E949F05882309F497CF9B
:100F200060E081E80E94B805C82F882309F48FCFBC
:100F300086E493E00E949F0663E082E20E94C5057A
:100F4000882389F06FE781E20E94C505882359F064
:100F500088E70E94D817811106C080E40E940B1810
:100F600014E08823A9F00E94FF170E94180770CF91
:100F700081EA0E949F05882309F469CF88EC99CF04
:100F800080E00E940B18DF5FD038D1F7115011F0CC
:100F9000D0E0F6CF10929C03E6CF0E946F0B8091B9
:100FA0009C03811104C080910001882321F00E94DC
:100FB00018071092000180914C0290914D020E94FE
:100FC000BC2681369A4E10F00C94D705089581E026
:100FD000809300010895CF93DF93AAE8B1E04EE833
:100FE00051E0C1E0D0E08D91E82FE295EF70F0E0A4
:100FF00061A18F709E0101C0220F8A95EAF7922F9E
:101000009095962391A382A1822B82A34A175B0716
:1010100051F7DF91CF9108950C94340B559A209A93
:101020005D9A289A08955D9808955D9A0895289884
:101030000895289A08950E94BD090E94EB07A4E82C
:10104000B1E061E070E08D91E82FE295EF70F0E0A3
:1010500041A18F709B0101C0220F8A95EAF7922F60
:101060009095942391A382A1822B82A381E0AA3838
:10107000B80749F70E940E08E6E5F2E0AEE4B2E0F8
:1010800011921D9282E0EE35F807D1F70E949F0978
:1010900080935E020C94420C9F92AF92BF92CF92CB
:1010A000DF92EF92FF920F931F93CF93DF93809184
:1010B0000201C4E0D0E0882311F0D0E0C0E08AE86B
:1010C000C82E81E0D82EAE01425B5D4F7A018A01C5
:1010D000AA24A394B12C25E0922EF60181916F01F0
:1010E000E82FE295EF70F0E021A18F70A50102C01A
:1010F000440F551F8A95E2F7CA01922F982B91A3AE
:1011000092A18095892382A350EA5A95F1F7E4E8E9
:10111000F1E020E050E040E03191A32FA295AF70C4
:10112000B0E090968C9190E03F7002C095958795C5
:101130003A95E2F780FD39C0C501042E01C0880F41
:101140000A94EAF7282B4F5F5F4F4630510521F78D
:10115000F8018081821719F02083909201010E948A
:10116000EB070F5F1F4FFEE8CF16F1E0DF0609F037
:10117000B4CF80910101882359F0815080930101FF
:101180008823A9F08FE99FE00197F1F700C00000E4
:1011900081E0DF91CF911F910F91FF90EF90DF9051
:1011A000CF90BF90AF909F90089580E0CBCFCA5A68
:1011B000DD4FF70191917F0199938F5F8430C9F7DB
:1011C000E7CF0F931F93CF93DF932091020110E09D
:1011D00000E0222311F004E010E00E94D809EC01A5
:1011E000009739F0029711F40E941708C1E0D0E08F
:1011F00011C00E941908F801EA5AFD4F80916A0255
:1012000090916B02A0916C02B0916D0280839183EA
:10121000A283B383CE01DF91CF911F910F910895E7
:101220000E944C0880910201E4E0F0E0882311F074
:10123000F0E0E0E0EA5AFD4F90E080E020E0DC01E1
:10124000A659BD4F4C913191431321E03C93019637
:1012500084309105A1F780916302820F809363022D
:101260000895CF93DF9380915E02882309F445C0EF
:101270000E944C0880910201C4E0D0E0882311F064
:10128000D0E0C0E0CA5ADD4F44E050E0BE0186E63F
:1012900092E00E942E30488159816A817B8140937F
:1012A00066025093670260936802709369020E941D
:1012B000E108892BE9F00E94130880915F028F5F9B
:1012C00080935F02863070F080910201F0E0E0E0F0
:1012D000882311F0E4E0F0E0EA5AFD4F1082118219
:1012E000128213820E944A0C81E0DF91CF9108950F
:1012F0000E94150810925F02F5CF0E94100980919C
:101300000201811112C090E080E08A5A9D4F409105
:101310006602509167026091680270916902FC0157
:101320004083518362837383DDCF84E090E0EDCF0F
:10133000E82FF0E0EA5AFD4F8081089508958091EA
:101340006002811111C08091D80080618093D80023
:101350008AE18A95F1F700C09091D900892F8170B8
:1013600090FF82E08093600281E090916002913072
:1013700009F080E008950C949F090E94BB098093B6
:1013800002010E949F09882321F00E94CC097894D1
:1013900008950E94D209FBCF63E070E083E091E002
:1013A0000C94DC1863E070E083E091E00C94E518A5
:1013B0000F931F93CF93DF938C0190911C01809129
:1013C0001B01D0E0C0E0981759F082E090E00E9445
:1013D000BE19EC01892B21F480911B0180931C0123
:1013E0008091610290916202082B192B90E080E0BD
:1013F000012B11F081E090E00E94BE19892B71F45D
:101400008091630280931B0110926202109261022C
:10141000CE01DF91CF911F910F91089581E090E06F
:101420009093620280936102F3CF80911A039091AE
:101430001B03A0911C03B0911D0384309105A105ED
:10144000B105E1F128F50097A105B10571F16EEA4A
:1014500071E082309105A105B10549F1BF93AF93C9
:101460009F938F9389EC91E09F938F931F9288E1D4
:101470008F938DE993E09F938F930E945B308DB79C
:101480009EB70A960FB6F8949EBF0FBE8DBF13C0CD
:1014900088309105A105B10529F08E309105A1058F
:1014A000B105E1F66BEB71E002C062E971E08DE934
:1014B00093E00E9454308DE993E0089561EA71E071
:1014C000F6CF8DE191E00895CF93C0E28C33910582
:1014D00020F4FC01E551FE4FC0811F92CF939F93F2
:1014E0008F93FB0180811F928F9381811F928F9335
:1014F0008AED91E09F938F931F9288E18F9385E807
:1015000092E09F938F930E945B308DB79EB70E96AB
:101510000FB6F8949EBF0FBE8DBF80916E02909162
:101520006F02449761F410926F0210926E02E0E72E
:10153000F2E080E2819392E0E438F907D9F78091F4
:101540006E0290916F02FC01E059FD4FC08301963D
:1015500090936F0280936E02CF91089585E892E098
:1015600008950F931F93CF93DF93EC018B010E949B
:10157000E707882351F0B801CE010E94930B8170D8
:10158000DF91CF911F910F91089580E0F8CF0C94D7
:10159000260BCF93DF93EC010E945225BE0190E011
:1015A00080E0DF91CF910C94A6228F929F92AF9210
:1015B000BF92CF92DF92EF92FF920F931F93C12CB5
:1015C000D12C7601C3949701860104C0000F111F2E
:1015D000221F331F6A95D2F74601570104C0880CB9
:1015E000991CAA1CBB1C8A95D2F7D501C401802B7B
:1015F000912BA22BB32B00911A0310911B03209166
:101600001C0330911D03082319232A233B23801731
:101610009107A207B30769F4842F1F910F91FF90E0
:10162000EF90DF90CF90BF90AF909F908F900C94F1
:101630000823842F1F910F91FF90EF90DF90CF90A0
:10164000BF90AF909F908F900C9429238091B70307
:10165000869590E09093B6038093B5030E949F090E
:1016600091E089270C941C070C94CD07CF93DF934E
:10167000EC0180915E02882371F00E94150ABC0182
:10168000CE010E9456060E94AE0ABC01CE01DF9137
:10169000CF910C9456060E94610ABC01CE01DF91E5
:1016A000CF910C9438060F931F93CF93DF93EC01E7
:1016B0008B0144E550E00E942E30892B59F084E5DF
:1016C000F801DE0101900D928A95E1F7CA5ADF4FC9
:1016D00081E08883DF91CF911F910F910895CF937F
:1016E000DF93CDB7DEB7C755D1090FB6F894DEBF8B
:1016F0000FBECDBFCE0101960E949F06CE0101967E
:101700000E94360BBE016F5F7F4F86E493E00E941C
:10171000530BC95ADF4F0FB6F894DEBF0FBECDBFD3
:10172000DF91CF9108950F931F93CF93DF938C0197
:10173000EB018A81882319F0C8010E94640A0930EC
:101740008DE5180761F150F4033C8CE5180709F4A6
:101750004CC008301D45D1F0C1E037C00B308DE5DD
:101760001807C9F140F10D301D45B1F7CA81CC23EE
:1017700099F30E9452100E9458148091B7038695E5
:1017800090E09093B6038093B5031FC0CA81CC2329
:10179000E1F081E090E00E94C90AC0E016C0CA8171
:1017A00081E0CC2359F00E94082343E062E081E00D
:1017B0000E94D50AF2CFCA8182E0F3CF0E9429238A
:1017C00043E062E081E00E94D50A8C2FDF91CF9147
:1017D0001F910F910895CA8183E0CC2319F00E94D4
:1017E0000823DBCF0E942923F0CFCA81CC2369F3E1
:1017F0008091B5030E9455140E9445148091B7034F
:10180000869590E09093B6038093B503C6CF81E0B0
:1018100008951F93CF93DF9300D000D00F92CDB7E0
:10182000DEB749835A836B832091C30289819A81F1
:1018300021111BC06623A9F00E94FB23182F682FDB
:1018400089819A810E94A42369817A81812F0F90D6
:101850000F900F900F900F90DF91CF911F910C94EC
:10186000D30C0E94D223182FEFCF0E94FB23698153
:101870007A81EDCFFC014081518162817381848145
:101880000C94090C0E943F25811102C00E94E125A1
:101890000C94C70A0C940C0808950C944C0C81E02D
:1018A00008950C944F0CCF93C82F0E944D0C8C2F91
:1018B000CF910C94510C08950E94FA1E0E945B0C6B
:1018C0002FEF84E39CE0215080409040E1F700C07E
:1018D000000087E797E790930108809300080C9435
:1018E0000A270F931F93CF93DF93EC010E943A0CCA
:1018F0008C01BE010E94B10A8823A9F1BE01C80172
:101900000E946516882379F1BE01C8010E94A616BF
:10191000882349F1BE01C8010E945215882319F19C
:101920008A81882341F001158CE51807D1F00E3D1E
:101930008CE51807F1F006311C4551F50E94902402
:101940009A819923D9F08A7A91E009F490E09093F2
:101950009D02811111C089E20E946B240E94DC2447
:1019600002C00E945C0C80E0DF91CF911F910F912B
:1019700008950E94E125F7CF85E3EECF80919D0287
:10198000811104C089E20E947224E8CF85E3FBCF75
:10199000CE01DF91CF911F910F910C94070C90E035
:1019A00080E008950895972F70E026E0929F600DE3
:1019B000711D1124FB0190E3899FE00DF11D11249D
:1019C000EE0FFF1FE451FA4F859194910895FC01A9
:1019D000EE0FFF1FE459F84F859194910895CF932E
:1019E000DF930E94D30C0E94A60EEC01811520E526
:1019F000920708F042C0811530E4930708F014C143
:101A0000883E910528F5803E910508F0A0C0883AEF
:101A1000910588F4853A910508F08FC081309105D1
:101A200009F495C0009709F492C0049708F08FC09C
:101A3000D0E0C0E08CC08F3B910508F48CC0805C86
:101A40009109C03CD105A0F30E94E70CEC017FC0D6
:101A50008115904250F4C11581E0D80708F077C095
:101A6000C03FD10528F3D06572C0C11590E3D907F6
:101A700008F0D0C0CE019F70E7CF811525E5920711
:101A800058F5811534E5930708F0FDC0811542E54E
:101A9000940750F4C11581E5D80708F4C8C0DC2FBD
:101AA000CC27C16FD06A53C0982F969596959E010A
:101AB00023703327C115D34508F0D6C0C1E0D0E06C
:101AC00002C0CC0FDD1F2A95E2F720E2929FC001F1
:101AD0001124C82BD92BC6C0C11589E5D807A8F495
:101AE000C11598E5D90708F0D3C0C11526E5D2077E
:101AF00008F09ECF8C2F0E943D0FC82FD0E0DC2F26
:101B0000CC27CC27DF71D06222C0C1153AE5D307BC
:101B100008F4C3C0CE0190568115904208F088CFDA
:101B20008D2F8F710E943D0F90E0982F8827882776
:101B30009F719C012C2BE901E6CF853A910509F4B0
:101B4000BAC0863A910509F0B9C0C2E8D0E4CE0126
:101B5000DF91CF910895883A910509F4B2C0893A8E
:101B6000910509F4B1C08A3A910509F4B0C08B3AE5
:101B7000910509F4AFC08C3A910509F4AEC08B3BD6
:101B8000910509F4ADC08C3B910509F4ACC08D3AC8
:101B9000910509F4ABC0803B910509F4AAC08E3AC7
:101BA000910509F4A9C08F3A910509F4A8C0813BB9
:101BB000910509F4A7C0823B910509F4A6C0833BB7
:101BC000910509F4A5C0843B910509F4A4C0853BA7
:101BD000910509F4A3C0863B910509F4A2C0873B97
:101BE000910509F4A1C0883B910509F4A0C0893B87
:101BF000910509F49FC08D3B910509F49EC08E3B71
:101C0000910509F49DC08A3B910509F49CC0C0E090
:101C1000D4E49DCFCE019927D3FF03C0EC01D86C4B
:101C200096CFEC01D06C93CFDF70D06A90CFCE010D
:101C3000E4E096958795EA95E1F783702C2F269539
:101C40002695237090E2299F90011124382B8C2F28
:101C50008370C1E0D0E002C0CC0FDD1F8A95E2F7AF
:101C6000C22BD32BDC6873CFC1E0D0E002C0CC0F15
:101C7000DD1F2A95E2F730E2939FC0011124C82BA3
:101C8000D92BDA6864CFD82FCC27C46FD06A5FCF46
:101C9000DC2FCC27C06FD06A5ACF8C2F8F700E9458
:101CA0003D0F34E0D695C7953A95E1F7CF709C2F5C
:101CB000EC01D0694CCFC1E8D0E449CFC3E8D0E40F
:101CC00046CFC2EED4E443CFC9EED4E440CFCAEE4F
:101CD000D4E43DCFC5EBD4E43ACFC6EBD4E437CF60
:101CE000C3EBD4E434CFC4EBD4E431CFC7EBD4E4BA
:101CF0002ECFCCECD4E42BCFCDECD4E428CFC3E86A
:101D0000D5E425CFCAE8D5E422CFC2E9D5E41FCF78
:101D1000C4E9D5E41CCFC1E2D6E419CFC3E2D6E4CE
:101D200016CFC4E2D6E413CFC5E2D6E410CFC6E2A4
:101D3000D6E40DCFC7E2D6E40ACFCFE6D4E407CF8E
:101D4000C0E7D4E404CFCAE2D6E401CF82389105DB
:101D5000B1F1B0F48133910509F475C048F48932CA
:101D6000910509F469C08A32910509F473C0089598
:101D70008533910509F459C08933910501F108951E
:101D8000833E9105A9F138F4803E9105F9F0823E39
:101D9000910549F10895863E9105A9F1873E910587
:101DA000C9F1843E910519F52091240421FF1FC03B
:101DB0008091230484FD14C087EE90E00895209163
:101DC00023042370A1F080EE90E008952091230475
:101DD00020FD47C03091240430FF09C024FF44C0D7
:101DE00090E080E004C02091230422FDF7CF089505
:101DF0002091230422FD3BC03091240430FDE3CF29
:101E000024FFF5CFEDCF2091230423FFF0CF24FD55
:101E1000E7CFD2CF2091230423FD2CC0309124049E
:101E200031FFEECF84EE90E008952091230425FF4A
:101E3000DECF89E290E008952091230425FFD7CFDB
:101E400085E390E008952091230426FFD0CF8AE215
:101E500090E008952091230426FFC9CF81E390E00C
:101E6000089589E390E0089583EE90E0089582EE6E
:101E700090E0089586EE90E008959091230492FFFB
:101E800006C0282F28712830F9F4877F846093FFDB
:101E900006C0282F28712831F1F4877E84612091B3
:101EA000240420FF06C0382F38713830D9F4877FDA
:101EB000816021FF06C0282F28712831D1F4877E48
:101EC000816194FD877E0895282F24712430F9F6CE
:101ED0008B7F8860DCCF282F2471243101F78B7E23
:101EE0008861DDCF382F3171313019F78E7F8860EE
:101EF000E0CF282F2171213121F78E7E8861E1CF3B
:101F0000AF92BF92CF92DF92FF920F931F93CF9326
:101F1000DF93362F472FE82FF0E0ED57F74F711181
:101F20000DC06491762F862FDF91CF911F910F9175
:101F3000FF90DF90CF90BF90AF900895C72FD0E073
:101F40002491F22E022F10E056E0659FC00111246B
:101F5000EFEFF0E0BF010E94E72F832F90E0880FA2
:101F6000991F35E5369FD001379FB00D11248A1B8C
:101F70009B0B982F990F980F6F01CC1ADD0AC09E0A
:101F8000D001C19EB00DD09EB00D11248B2F949F17
:101F9000A0011124452F55276F01C41AD50AC09EF0
:101FA000A001C19E500DD09E500D11245F01A91AB1
:101FB000B108AC9E6001AD9ED00CBC9ED00C11242B
:101FC000CD2CDD24EC19FD09E09FE001E19FD00D4F
:101FD000F09FD00D1124ED2F62307105A1F048F46F
:101FE0006115710569F06130710589F0EB2F852F5E
:101FF00007C06430710571F088F066307105B1F783
:102000006E2F722F91CFE22F2B2F8D2FF9CFE22F32
:10201000252FF6CFEB2F822F2D2FF2CF2B2F8F2DA9
:10202000E52FEECF0895CF93DF93762FE901682F48
:10203000842F0E94800F798368838A83DF91CF91F8
:102040000895493708F048E70C9413108091B703BE
:10205000982F9E7F61F4817082608093B703809196
:10206000BA03893718F088E78093BA0308958A3451
:10207000B0F381708864F1CF88E090E00C940B336A
:10208000CF92DF92EF92FF926B017C010E942610AB
:10209000B701A60188E090E0FF90EF90DF90CF902D
:1020A0000C942933E7EBF3E083E0808311828FEF18
:1020B000828388E783831482608171818281938126
:1020C0000C9440108091B70380FF02C0869508955C
:1020D00080E008958091BB03833018F48F5F809374
:1020E000BB036091B7037091B8038091B9039091DD
:1020F000BA030C9440108091BB03882319F08150DF
:102100008093BB036091B7037091B8038091B903CA
:102110009091BA030C9440106091610170E080913D
:10212000B70380FF0AC08091A20223E0829FC00112
:10213000112484549C4F0C94F5158091A102909128
:10214000600123E0829FF0011124E454FC4F8917C1
:1021500050F71182108212828F5F3396F8CF9091E0
:10216000B70390FF14C09091A1022091600133E069
:10217000939FF0011124E454FC4F921710F00C943B
:102180008C108183608342839F5F3396F6CF0895DE
:10219000CF93DF9300D00F92CDB7DEB79091B70306
:1021A00090FF0AC09E012F5F3F4F0E9421104B817C
:1021B00069818A810E94AF100F900F900F90DF917C
:1021C000CF910895CF93DF93EC01EC81F0E0E258DA
:1021D000F84F4491E7EBF3E0628181810E94C810DF
:1021E0008C818F5F8C83DF91CF910895CF93DF93A4
:1021F000EC01E7EBF3E0438162818C810E94C8101F
:102200008C818F5F8C83DF91CF9108950F931F9303
:10221000CF93DF9300D00F92CDB7DEB78C018091C2
:102220009E0281110AC09E012F5F3F4F48E76FEF6A
:102230000E9421108A8180939E02F801648161309E
:1022400069F080919E0240E0662361F040E06230D8
:1022500011F440919E0280E060E004C060919E0213
:1022600040E080E00E94AF10F801848190E0019688
:1022700063E070E00E94FB2F84830F900F900F901B
:10228000DF91CF911F910F910895AF92BF92CF929E
:10229000DF92EF92FF920F931F93CF93DF9300D0C3
:1022A0000F92CDB7DEB7182FF62E042FE22E9091A5
:1022B000B70390FF29C0E92FE695AE2FB0E0A95DE6
:1022C000BD4F8C918093AA029E7F923059F59E015A
:1022D0002F5F3F4F812F0E9421104B8169818A819E
:1022E0000E94AF101093B803F092B9030093BA03A1
:1022F000EE2051F06091B7037091B8038091B9035B
:102300009091BA030E9440100F900F900F90DF91B0
:10231000CF911F910F91FF90EF90DF90CF90BF90E2
:10232000AF900895823019F40091BA03DBCF863064
:1023300019F41091B803D6CF8930D9F3893191F6C9
:10234000E9518E2F8170D82EE695F0E0E258F74FD4
:10235000A590B490C12CBB2460915F01C61618F003
:102360000E948C10BFCF2C2D30E0A29EC001A39EF6
:10237000900DB29E900D112470E00E94E72F812FE6
:10238000D11013C0860F4091A102420F532F511D4F
:102390009A01220F331F240F351F24543C4F402F26
:1023A0006F2D0E942110C394D7CF861BECCFE7EB93
:1023B000F3E09181282F438162818AE0890F0C9498
:1023C000451181E00C94D711E7EBF3E09181282FC0
:1023D0004381628186EF890F0C94451181E00C9452
:1023E000E411E7EBF3E0628121E1620F08F46FEFA3
:1023F000282F438181810C94451181E00C94F111C7
:10240000E7EBF3E0628121E1621B08F460E0282F32
:10241000438181810C94451181E00C940012E7EB1B
:10242000F3E0438121E1420F08F44FEF282F62814E
:1024300081810C94451181E00C940F12E7EBF3E0DD
:10244000438121E1421B08F440E0282F6281818111
:102450000C94451181E00C941E1220E00C9445115F
:10246000EF92FF921F93CF93DF93EC0110E0EE24E5
:10247000EA94F12C60915F01161770F00E948C10A5
:102480009A818C8190FF27C08F5F8C83DF91CF91E1
:102490001F91FF90EF9008952091A102422F410FCC
:1024A0005527551FCA019A01220F331F280F391FC4
:1024B00024543C4F70E0C7010E94FB2F962F8C8163
:1024C0004091BA036091B903199F800D11240E94B5
:1024D00021101F5FCFCF8150D8CFAF92BF92CF9244
:1024E000DF92EF92FF920F931F93CF93DF93FC0144
:1024F00082810FEF80FF01E010E04BE1A42E80917C
:102500005F011817C8F00E948C108091A002013062
:1025100009F055C0811102C080915F018150809304
:10252000A002DF91CF911F910F91FF90EF90DF906C
:10253000CF90BF90AF900895C091A102C12ED12C31
:10254000CC0DDD2DD11DCE01880F991FC80FD91FCD
:10255000C454DC4F198218821A8234E0E32EF12C25
:10256000B12C8091A0028B0D8C311CF16A2D0E9440
:10257000D92F892F082E000C990BC816D90691F473
:102580008091BA038E9DA0018F9D500D1124559509
:102590004795559547959E016091B9038091B80381
:1025A0000E942110B00EF1E0EF1AF108D1F61F5F82
:1025B000A6CF87FFDFCF90915F01890FDBCF90E03F
:1025C000019660915F0170E00E94FB2FA8CF0F93EE
:1025D0001F93CF93DF938091A1029091600123E03C
:1025E000829FF0011124E454FC4F891740F1C0E0B0
:1025F000D3E060915F01C61740F10E948C102091DA
:102600005D0180919F02820F80939F0290915E01F5
:10261000920F90935E01191654F4082E000C990B3A
:1026200040915F014150550B841795071CF021958F
:1026300020935D01DF91CF911F910F910895118239
:10264000108212828F5F3396D0CF0C2F10E070E093
:10265000C8010E94FB2F2091A102820F482F50E059
:1026600020919F02022E000C330B02171307BCF0BF
:1026700020915E01022E000C330B201731077CF0F5
:102680008D9F9001112424543C4F4091BA036091D6
:10269000B9038091B8030E942110CF5FAACFFA013D
:1026A000EE0FFF1FE40FF51FE454FC4F1182108260
:1026B0001282F3CF0F931F93CF93DF938C01FC0112
:1026C0008481958101968170992795838483C0E0E8
:1026D000D5E580915F01C81730F0DF91CF911F9150
:1026E0000F910C948C102091A102422F4C0F552772
:1026F000551FCA019A01220F331F280F391F245476
:102700003C4F8C2F8695F80144815581840F952F7D
:10271000911D81704091BA036091B9038D9F802D06
:1027200011240E942110CF5FD4CF0F931F93CF931A
:10273000DF93EC0110E000E090915F01901711062B
:1027400009F06CF40E948C108C8190E001968170ED
:1027500099278C83DF91CF911F910F91089520913C
:10276000A102A801420F511D9A01220F331F240F0D
:10277000351F24543C4F4C816091B9038091B803BC
:1027800096959017110651F04CF0442349F0409172
:10279000BA030E9421100F5F1F4FCECF4423B9F31D
:1027A00040E0F7CFE7EBF3E080818E7F80836081AC
:1027B0007181828193810E9440101092AB022FEFB1
:1027C00080E792E0215080409040E1F700C0000097
:1027D0000C948C106091B703669570E04BE050E06C
:1027E00082E691E00E942130892B19F481E08093E8
:1027F000AB020E94B0269093A4028093A302089596
:102800009091B70390FF35C09170811128C09260FC
:102810009093B703662351F06091B7037091B803AA
:102820008091B9039091BA030E9440106091B70360
:10283000669570E04BE050E082E691E00E94213026
:10284000892BA1F01092AB0281E08093A602409107
:10285000BA036091B9038091B8030C942D128532AC
:1028600010F09864D5CF880F982BD2CF0E94EA132E
:10287000EBCF0895682F9091B703969581E0890F6B
:10288000853208F081E00C94001481E00C943A1435
:10289000682F9091B70396958FEF890F09F484E222
:1028A0000C94001481E00C94481461E00C94001422
:1028B000E7EBF3E080818160808386950C9455146A
:1028C0008091B70380FD0C94D2130C94581460E0EF
:1028D0000C9400148091A90281112EC00E943F2502
:1028E000811104C00E94E1250E9452100E943C10F8
:1028F0006093B7037093B8038093B9039093BA03BE
:102900006E7F61F40E9452100E943C106093B703E6
:102910007093B8038093B9039093BA030E94261072
:102920001092AB028091B70380FF03C086950E948E
:10293000671481E08093A90208950F931F93CF93AA
:10294000DF938091AB02882309F48DC08091AA02A5
:10295000E091B703E695E81BE093A5028230C9F544
:10296000F0E0E658F84FE491CE2FD0E002EE10E10F
:102970008091A602882389F01092A6020E94B026B8
:102980009E0120953095820F931F9093A40280930F
:10299000A3021092A8021092A7028091A302909124
:1029A000A4020E94BC268C179D0708F45CC0E0912D
:1029B000A302F091A402CE0FDF1FD093A402C09314
:1029C000A30283EA92E0F801DF91CF911F910F916A
:1029D0000994863049F4F0E0E958F84FE491CE2F9D
:1029E000D0E006EF10E1C4CF893051F4E695F0E075
:1029F000EC58F84FE491CE2FD0E000E312E1B8CFCD
:102A00008F3051F4E695F0E0EF58F84FE491CE2F77
:102A1000D0E00DE612E1ACCF853149F4F0E0E259A7
:102A2000F84FE491CE2FD0E007EE12E1A1CFC8EE2F
:102A3000D3E00AE513E1883109F49ACF833239F4FF
:102A4000ECE6F7E0C591D49106E011E191CFC4EF37
:102A5000D1E005E913E1843209F48ACFC0EDD7E073
:102A600002E110E185CFDF91CF911F910F91089581
:102A7000FA01811101C0FB010994CF93DF93C82FA4
:102A8000D62F0E9462108C1740F00E9462108D17A2
:102A900020F4DF91CF910C9445148C2FDF91CF91CE
:102AA0000C9455140F931F93CF938C01FB01C2819B
:102AB000CC2309F465C00E9490248272F801E25C84
:102AC000FC45E431F10538F4EC57FC4C0C940F3024
:102AD0000E946014C0E08C2FCF911F910F91089538
:102AE00042E554E165E474E10E943815F3CF45E412
:102AF00054E162E574E1F8CF4EEE51E161EE71E12F
:102B0000F3CF41EE51E16EEE71E1EECF4CE052E1D8
:102B10006DEF71E1E9CF4DEF51E16CE072E1E4CF8F
:102B20004AE252E16BE172E1DFCF4BE152E16AE24E
:102B300072E1DACF4BE750E16AE670E1D5CF4AE6C1
:102B400050E16BE770E1D0CF81E00E945514C2CF15
:102B500065E082E00E943D15BDCF68E086E0FACFD7
:102B60006EE089E0F7CF64E18FE0F4CF67E185E1C3
:102B7000F1CF88E1EACF62E289E1ECCF83E2E5CFF1
:102B8000C1E0A9CF3BB1242F209523233BB1432B98
:102B90003FB7F894680F791F8617970711F43FBF66
:102BA0000895FC015191CF01E8E04BB9000000C04D
:102BB00057FF2BB9550F000000C000C000C02BB953
:102BC00000C0EA9591F7E8CF2AB1242B2AB99B01DE
:102BD000220F331F620F731F0E94C21587EC90E013
:102BE0000197F1F700C00000089548E00C94E41547
:102BF0000F931F93CF93DF93C62FD42F022FFC0187
:102C000082818823C9F06093AE020E94B02690931F
:102C1000AD028093AC0280E28C0F883008F050C087
:102C2000C77081E001C0880FCA95EAF7DF91CF91A4
:102C30001F910F910C94841C1091AE02161335C095
:102C40008091AC029091AD020E94BC268436910521
:102C500060F5C0E2CD0F1D17B9F080E2810F88301A
:102C600040F4177081E001C0880F1A95EAF70E94BE
:102C70008B1CC83048F481E09D2F977001C0880FED
:102C80009A95EAF70E94841C802F0E94711CC8301C
:102C9000B8F4D77081E001C0880FDA95EAF7DF91C8
:102CA000CF911F910F910C948B1C80E28C0F883078
:102CB00038F4C77081E001C0880FCA95EAF7EFCFFA
:102CC000DF91CF911F910F9108959C01CB01233F7C
:102CD0004CE5340731F190F4283DFCE53F07E9F07D
:102CE000293D4CE5340769F1273D3C4579F426E25E
:102CF00041EE61EE0E94F81580E00895253FFCE565
:102D00003F07B9F090F0263F3C45B9F0FC018281C5
:102D10008823D1F01092AE02089527E245EE65EEC9
:102D2000E9CF26E241EE60EEE5CF27E245EE64EE24
:102D3000E1CF26E241EE62EEDDCF27E245EE66EE20
:102D4000D9CF28E241E0EBCF81E00895CF93DF9324
:102D5000EC01FB018281882309F419C1C230FCE532
:102D6000DF07C0F1C6319CE5D90730F09E012A5F2C
:102D70003C452930310570F50E9457259093240475
:102D800080932304C031ECE5DE0709F4CFC008F0DE
:102D90005BC0C8308CE5D80709F4B6C088F5C430EC
:102DA000ECE5DE0709F4A8C0C0F4C2308CE5D80712
:102DB00009F49CC0809123048260C330DC4509F48F
:102DC00098C080912304909124040E9465250E945C
:102DD000FA1E80E0DF91CF910895809123048061F5
:102DE000C630ECE5DE0709F484C0809123048860D6
:102DF000C730DC4508F47DC080912304806279C02F
:102E0000CC308CE5D80709F489C070F48091230494
:102E10008C60CA30ECE5DE0709F46BC008F478C0BA
:102E2000809123048E7F65C0CE308CE5D80709F4ED
:102E300079C0809123048B7FCF30DC4508F459C0E2
:102E4000809123048F7E55C0CB3FECE5DE0709F46B
:102E500057C030F5C3318CE5D80709F46FC078F45A
:102E6000C131ECE5DE0709F465C0C231DC4509F08B
:102E7000A8CF0E94FA1E809123048F773AC0C531F3
:102E80008CE5D80709F462C008F476C08091240468
:102E90008160CA3FDC4509F094CF8093240491CF30
:102EA000CF3FFCE5DF0709F44DC088F4809124048E
:102EB0008D7FCD3F9CE5D90781F3809124048E7FDF
:102EC000CE3FDC4550F3809124048360E6CFC130CF
:102ED000FDE5DF0709F459C008F444C080E0C230C2
:102EE000DD4509F06ECF0E94E3256BCF809123046E
:102EF00081608093230465CF809123048460F9CF9F
:102F0000809124048260C9CF809123048064F1CF32
:102F10000E94FA1E809123048068EBCF80912304E5
:102F20008D7FE7CF80912304877FE3CF80912304B7
:102F30008F7DDFCF809123048F7BDBCF80912304B3
:102F4000837FD7CF809124048C7FA7CF80912304E7
:102F500082FB992790F921E0922790FB82F990FB60
:102F600083F9C7CF80912404982F909591708E7F1C
:102F7000892B90FB81F991CF0E94FA1E9091230436
:102F8000892F97FB87F98058B4CF81E0ACCF81E0DF
:102F900021CF83E390E02091BC0027FD02C0019780
:102FA000D1F708951092B9008CE08093B80008958D
:102FB000CF93C82F84EA8093BC000E94C9178091E8
:102FC000B900887F883041F08091B900887F8031D6
:102FD00019F081E0CF910895C093BB0084E88093FD
:102FE000BC000E94C9178091B900887F883129F000
:102FF0008091B900887F803461F780E0EBCF84E96D
:103000008093BC0083E390E02091BC0024FD02C0CB
:103010000197D1F708958093BB0084E88093BC00AA
:103020000E94C9179091B900987F81E0983209F405
:1030300080E008951F921FB61F9211248F939F93D3
:10304000EF93FF938091B900887F8038C1F038F406
:10305000882309F44BC0803679F081E022C0883A99
:1030600011F0883BD1F7E091B002F0E0E35FFB4F55
:1030700080818093BB0031C01092AF02EECF80916F
:10308000AF02811122C08091BB008093B002809179
:10309000B0028031C0F01092B00280E091E09093D5
:1030A000AF029091BC008295880F880F807C892B9D
:1030B00085688093BC00FF91EF919F918F911F9045
:1030C0001FBE1F90189581E0E9CFE091B002F0E0BB
:1030D0008091BB00E35FFB4F80838091B00290E062
:1030E00001968F7099278093B002B7CF1092BC00E1
:1030F000B4CF8EE14A9B02C08150E1F74A9BFECFDC
:1031000008955A9880E28A95F1F75A9A0895FC0139
:103110003BE03A95F1F720E090E080E031E040E1DB
:103120004A95F1F7880F4A9B02C08160232742E04D
:103130004A95F1F7000040E14A95F1F79F5F691366
:10314000EECF90E19A95F1F799B132E03A95F1F727
:10315000000040E14A95F1F792FB992790F99227F8
:103160002081920F90830895EF92FF920F931F9307
:10317000CF93DF930F92CDB7DEB719828C017C011C
:10318000E60EF11C0E151F0561F481E09981911185
:1031900080E00F90DF91CF911F910F91FF90EF9002
:1031A00008950E94791868E0CE0101960E94871860
:1031B000F80181938F01E6CF9093B3028093B2021E
:1031C0006093B102529A5A9A08959093B3028093F1
:1031D000B2026093B10252985A9AEA9AE9E6F0E094
:1031E00080818F7C808308956150770B91E001C0CE
:1031F000990F6A95EAF720E031E0911108C0222387
:1032000091F05A9A80E28A95F1F75A980895492FD9
:10321000482339F05A9A232740E24A95F1F79695C8
:10322000ECCF5A98F9CF5A98EDCFFF920F931F9396
:10323000CF93DF93EC018C01060F111DC017D1074E
:1032400031F4DF91CF911F910F91FF900895F99084
:103250000E94811868E08F2D0E94F418EFCF1F9212
:103260000F920FB60F9211240F931F932F933F933A
:103270004F935F936F937F938F939F93AF93BF937E
:10328000EF93FF93CF93DF930F92CDB7DEB7198201
:103290000E94791867E0CE0101960E948718082FD6
:1032A000069506950695982F92959570202F257076
:1032B000920F292F2370969596958770920F8913F8
:1032C00044C08981811141C08091B1028017E8F129
:1032D00020E12A95F1F75A9A529A82E08A95F1F7FD
:1032E00000C0A8E00A9FC00111240091B202109111
:1032F000B302080F191F5A98F8016581662321F05F
:10330000868197810E9415190E948118F0E1FA9533
:10331000F1F75A9852985A9A20E12A95F1F7D80174
:1033200012966C911297662331F113968D919C91B0
:103330000E94B418D801ED91FC91882311F088E027
:1033400001C082E080830E9479180F90DF91CF91B5
:10335000FF91EF91BF91AF919F918F917F916F916D
:103360005F914F913F912F911F910F910F900FBE41
:103370000F901F901895ED91FC91E1CF0F931F9343
:10338000CF93DF932091B102281719060CF471C076
:103390008C0193E0000F111F9A95E1F7C091B202E2
:1033A000D091B302C00FD11FF894529A5A9825E0D9
:1033B0002A95F1F70000982F969595708570980FD3
:1033C000892F837096959695980F092B0E948118E6
:1033D00000C067E0802F0E94F41880E18A95F1F721
:1033E00052985A9A4A9B17C087E090E04A9915C0B4
:1033F0006D81662321F18E819F810E94B418811115
:103400001EC0529A5A9AE881F98182E080837894AA
:1034100082E090E00DC000C0E5CF019771F4529AB0
:103420005A9AE881F98181E08083789481E090E084
:10343000DF91CF911F910F91089500C0D7CF0E94C7
:10344000791820E22A95F1F75A98529A80E18A95E4
:10345000F1F76A81662321F08B819C810E94151906
:103460000E948118E881F9811082789490E080E0D0
:10347000DFCF84E090E0DCCF9093B9028093B80274
:103480000895E091B802F091B902309721F00190CF
:10349000F081E02D099480E00895E091B802F09168
:1034A000B902309721F00280F381E02D099408954C
:1034B000E091B802F091B902309739F022E0DC01D6
:1034C0002C930480F581E02D099408952091B60293
:1034D0003091B7022817390771F09093B7028093A3
:1034E000B602E091B802F091B902309721F006805F
:1034F000F781E02D099408952091B4023091B5022E
:103500002817390771F09093B5028093B402E091C7
:10351000B802F091B902309721F00084F185E02DD6
:103520000994089585B7806885BF85B7806885BF91
:103530000895089508950C94991A08950C949D1A6D
:103540000E94921A0E949A1A0C949B1A81E0089584
:103550000E94A7260E941B080E941B270E946A1433
:103560000C949E1AAF92BF92CF92DF92EF92FF928D
:103570000F931F93CF93DF93CDB7DEB72A970FB684
:10358000F894DEBF0FBECDBF0E9431090E94A61A7B
:10359000882309F461C08BEBA82E82E0B82E10E0DE
:1035A00000E0C02E802F0E949809E82EF501D190EE
:1035B0005F01D81609F44AC080912F0381FD0E9453
:1035C0009E0980E0FF24F394DE249D2D9F21C9F104
:1035D0008E83CF82EF2081E009F480E088870E940B
:1035E000B0268160782F9A8789874E815F816885B0
:1035F0008A850E944E1BF801E554FD4F8081F82614
:10360000F0820E949D140E94A8280E94411A909165
:10361000BA02891791F10E94411A8093BA022A9640
:103620000FB6F894DEBF0FBECDBFDF91CF911F91D3
:103630000F91FF90EF90DF90CF90BF90AF900C94E0
:10364000530C8F5FFF0C863009F0BFCF0F5F1F4F09
:103650000830110509F0A5CF8FEF89838A831B827B
:103660000E94B0268160782F9D838C8349815A8186
:103670006B818D810E944E1BC4CF2A960FB6F894A1
:10368000DEBF0FBECDBFDF91CF911F910F91FF9095
:10369000EF90DF90CF90BF90AF900895CF93DF93DE
:1036A000CDB7DEB72B970FB6F894DEBF0FBECDBFF8
:1036B0004F83588769877A878B871E821D8285E0B2
:1036C000FE013796DE01119601900D928A95E1F781
:1036D00049815A816B817C818D819E812B960FB6A9
:1036E000F894DEBF0FBECDBFDF91CF910C94842143
:1036F000FC01808191810C943D24882309F4C1C090
:103700009CEF980F913A20F40E946B240C94DC24D7
:1037100090E2980F983050F4877091E001C0990FB3
:103720008A95EAF7892F0E949324F0CF9BE5980FA2
:10373000933070F4853A31F0863A39F083E890E0BE
:103740000C94661A81E890E0FBCF82E890E0F8CF15
:1037500098E5980F973108F08EC0883A09F446C072
:10376000893A09F446C08A3A09F446C08B3A09F40A
:1037700046C08C3A09F446C08B3B09F446C08C3BEA
:1037800009F446C08D3A09F446C0803B09F446C0AE
:103790008E3A09F446C08F3A09F446C0813B09F4D9
:1037A00046C0823B09F446C0833B09F446C0843BD3
:1037B00009F446C0853B09F446C0863B09F446C07F
:1037C000873B09F446C0883B09F446C0893B09F4AD
:1037D00046C08D3B09F446C08E3B09F446C08A3B87
:1037E00009F446C090E080E00C947C1A82EE90E0F0
:1037F000FBCF89EE90E0F8CF8AEE90E0F5CF85EB35
:1038000090E0F2CF86EB90E0EFCF83EB90E0ECCF4F
:1038100084EB90E0E9CF87EB90E0E6CF8CEC90E092
:10382000E3CF8DEC90E0E0CF83E891E0DDCF8AE854
:1038300091E0DACF82E991E0D7CF84E991E0D4CF6B
:1038400081E292E0D1CF83E292E0CECF84E292E0B7
:10385000CBCF85E292E0C8CF86E292E0C5CF87E287
:1038600092E0C2CF8FE690E0BFCF80E790E0BCCF80
:103870008AE292E0B9CF803F20F00E94B6270C94F4
:103880009D280895882361F19CEF980F913A20F4C8
:103890000E9472240C94DC2490E2980F983050F42B
:1038A000877091E001C0990F8A95EAF7892F0E94ED
:1038B0009924F0CF9BE5980F933020F490E080E0BE
:1038C0000C94661A98E5980F973120F490E080E008
:1038D0000C947C1A803F20F00E941E280C949D2896
:1038E0000895CF93C82F0E947D1BC93349F42FEF51
:1038F00087EE93E0215080409040E1F700C0000047
:103900008C2FCF910C94421C882321F00E94932489
:103910000C94DC240895882321F00E9499240C94AF
:10392000DC240895BF92CF92DF92EF92FF920F9323
:103930001F93CF93DF936C01D62FC72FFC01058116
:1039400002950F70128111110E94B0240E948924E7
:10395000E82E882371F01123B1F080E28D0F8830BA
:1039600090F082E00E9427250E94892491E0E82EB1
:10397000E926BC2EB2949FE0B922EB2DF0E0E85688
:10398000FC4C0C940F30E12CF4CF0C2F0F70C07F47
:1039900011F00295007F1123A9F0002359F080E275
:1039A0008D0F883010F0D11109C0802F0E94932410
:1039B0000E94DC248D2F0E947D1B14C0802F0E944A
:1039C000A324F6CF8D2F0E94421C002359F080E2E1
:1039D0008D0F883010F0D1112CC0802F0E949924B7
:1039E0000E94DC242B2D2850330B2430310520F489
:1039F0000E94411A0E94530CEE2009F4B9C10E94A2
:103A0000852480FDB5C1F60112820E947F240E94A8
:103A10000823C6010E94C21E0E947F24DF91CF911D
:103A20001F910F91FF90EF90DF90CF90BF900C947B
:103A30002923802F0E94A924D3CFFC2FFF70FF2EB3
:103A4000C07FC03219F0F29480EFF822DD2369F0D4
:103A5000D13049F1112391F1002351F1F601858113
:103A600080FFA8CF8F70858323C0112381F00111BF
:103A700006C00E94C3248F290E94841CB3CF01304A
:103A8000C1F70E94C3248F290E94C924ABCF011122
:103A900006C00E94D2248F2D0E948B1CA3CF013020
:103AA00009F4A0CFF6CF112329F0063008F09ACF01
:103AB0008F2DE2CF053008F095CFEDCF002359F3DD
:103AC000D93349F4FFEF27EE33E0F1502040304086
:103AD000E1F700C000008D2F0E94421C83CF11230C
:103AE00009F1D53F99F0D63FB9F0D43F49F4809120
:103AF0001D0490911E04816090931E0480931D0408
:103B00008D2F0E94B6270E949D286CCF80911D04A6
:103B100090911E048260F0CF80911D0490911E044C
:103B20008460EACFD53F89F0D63FA9F0D43F49F46D
:103B300080911D0490911E048E7F90931E048093AB
:103B40001D048D2F0E941E28DECF80911D049091B0
:103B50001E048D7FF2CF80911D0490911E048B7FF7
:103B6000ECCF8C2F837009F041C011113BCF4D2F4A
:103B7000429546954770440F440F0D2F0F7010E08B
:103B800030E020E0042E04C0000F111F221F331F5D
:103B90000A94D2F760E070E0CB01D4FF0FC06FE071
:103BA00070E080E090E004C0660F771F881F991FC7
:103BB0004A95D2F76095709580959095C695C69573
:103BC000C370602B712B822B932BC23049F058F4B9
:103BD000C13019F00E94BA2205CF0E94A82202CF5C
:103BE0000E94CC22FFCE0E94A622FCCE86951123F5
:103BF00011F08C2F8170882309F4F4CE4D2F42955B
:103C000046954770440F440F0D2F0F7010E030E0C1
:103C100020E0042E04C0000F111F221F331F0A943E
:103C2000D2F760E070E0CB01D4FF0FC06FE070E02E
:103C300080E090E004C0660F771F881F991F4A95A7
:103C4000D2F76095709580959095C695C695C3708E
:103C5000602B712B822B932BC23049F058F4C1306A
:103C600019F00E947F23BECE0E946D23BBCE0E941E
:103C70009123B8CE0E94E222B5CECF70112329F055
:103C80008C2F0E9408238D2FF7CE8D2F0E948B1C26
:103C90008C2F0E942923A6CED23F89F160F4D03F19
:103CA000C9F0D13F29F1112309F442C0011182CE9C
:103CB0008C2F8F7121C0D33F39F1D43FA1F711234D
:103CC00069F1CF718C2F0E94082363E08C2F0E9432
:103CD000122588CE112341F0053008F083CE8C2FB9
:103CE0008F710E944C237ECE063008F07BCEF7CF3A
:103CF0008C2F8F71112369F20E94082373CE8C2FB1
:103D00008F711123C9F3C5CF112329F08C2F8F7127
:103D10000E94F32267CE0E94EE2264CE81E00E94D0
:103D20002725023008F45ECE82E00E9427255ACE75
:103D3000002359F0D93309F0CECE8FEF97EEE3E0B0
:103D400081509040E040E1F7C4CE8C2F8F71A1CF1D
:103D50004C2F4F706D2FC6010E94CF0C0E941E2267
:103D600041CE4C2F4F706D2FC6010E94D20C3ACE1F
:103D7000DF91CF911F910F91FF90EF90DF90CF9047
:103D8000BF9008950F931F93CF93DF93EC018B8126
:103D90009C81892B29F08881998189238F3F29F47F
:103DA000DF91CF911F910F910895CE010E94710C68
:103DB0008823B1F3688179818A810E9447248C012C
:103DC0000E94A3230E94A522B801CE01DF91CF91CA
:103DD0001F910F910C94921C0E94B0240E94C02449
:103DE0000E94DC240E943F290C949D280E94792483
:103DF0000C94EC1E0E94A0240C94F61EE92FE29570
:103E0000EF70E250EE3070F4F0E0E855FC4C0C94AA
:103E10000F30803F19F020F4883E20F481E00895AF
:103E2000843FE1F380E00895883EC0F3813FD1F7FD
:103E3000F5CF93FB882780F908950E943D240C94C8
:103E4000FE1ECF93DF9300D000D00F92CDB7DEB728
:103E50000F900F900F900F900F90DF91CF910895DA
:103E6000CF93DF9300D000D000D0CDB7DEB7269639
:103E70000FB6F894DEBF0FBECDBFDF91CF9108958E
:103E80001F93CF93DF93C091C40216E08091C502C7
:103E90008C1304C0DF91CF911F910895D0E01C9F37
:103EA000F0011D9FF00D1124EA53FD4F4081518117
:103EB00062817381848195810E94301F2196C77031
:103EC000E5CF4091F6025091F7026091F8027091AF
:103ED000F9028091FA029091FB020C94301F1F931B
:103EE000CF93DF938091FB02807FC1F48091F80231
:103EF0008823A1F08091C402C091C5026091F602AE
:103F00007091F7024091F9025091FA02D62FD7230F
:103F1000DA01A095B09516E0C81304C0DF91CF91E7
:103F20001F91089590E04115510511F0DF3F31F4E4
:103F300001968770F1CF2A0F3B1F17C0189FF00121
:103F4000199FF00D1124EA53FD4F21812713F0CF63
:103F500020812613EDCF22812111EACF23813481E4
:103F60002417350740F3241B350B2436310500F7A1
:103F70002091FB022F7020612093FB0226E0289FF6
:103F8000F001299FF00D1124E553FD4F80818F70C2
:103F90008061808386EF92E00E94C21EDF91CF9104
:103FA0001F910C94401FBF92CF92DF92EF92FF922D
:103FB0000F931F93CF93DF93CDB7DEB761970FB603
:103FC000F894DEBF0FBECDBF7C0185E0F701DE01B6
:103FD0001D9601900D928A95E1F7D7014C911196AB
:103FE0005C91119712960C9112978091F902909121
:103FF000FA02009709F469C12091F6023091F702A4
:10400000622F63236F3F09F460C11396CD90DC905B
:10401000B090F802BB2009F41EC1C816D906C8F139
:10402000F601E81BF90BCF0111E08436910508F089
:1040300010E08091FB02982F907F112309F4C6C0F5
:1040400091117FC0102F351329C0241327C00111EF
:1040500025C08F7080618093FB020E94611F86EFF4
:1040600092E00E94C21E8091FB02D70115968C93AC
:10407000812F61960FB6F894DEBF0FBECDBFDF91E2
:10408000CF911F910F91FF90EF90DF90CF90BF9055
:104090000895809590958C0D9D1DC6CFCD2829F053
:1040A000852F84238F3F09F02CC180E0B82FB17099
:1040B000DB2E80FF3CC08091C4022091C50236E017
:1040C000821315C04D875E878D859E850E943D2495
:1040D000292F22952F702230F0F0243018F59F7090
:1040E000F1F0F7019581907FD1F4D12C1EC090E0C2
:1040F000389FF001399FF00D1124EA53FD4F618183
:10410000651306C06081641303C0628106130FC08B
:1041100001968770D5CF9F7011F0882331F3805EB0
:10412000883018F3C7010E94C21E1D2DA1CF0023A5
:1041300009F49ECF8091FB0281608093FB0210E026
:1041400097CF351315C0241313C0011111C0D70127
:1041500015968C93C7010E94C21E86E0F701A6EF58
:10416000B2E001900D928A95E1F70E94611F80CF25
:104170004D875E878D859E850E941D1F882311F1C6
:10418000002301F18091FB02803270F02091F60251
:104190003091F70238872F831986DB86CA868C8791
:1041A000CE0107960E94C21E86E0F701A6EFB2E09C
:1041B00001900D928A95E1F70E946F1F0E94611F86
:1041C00011E056CFC7010E94C21EFACF911113C051
:1041D0007C2DD98AC88A602F89890E94211F86EF89
:1041E00092E00E94C21E86E0E6EFF2E0DF011D923F
:1041F0008A95E9F7BACF351312C0241310C0011104
:104200000EC0F7018583C7010E94C21EE6EFF2E0EF
:1042100086E0DF011D928A95E9F71B2D29CF4D8796
:104220005E878D859E850E941D1F882359F200237D
:1042300049F28091FB02803208F4B6CF2091F60259
:104240003091F7023A8329831B82DD82CC828E83F0
:10425000CE010196A7CFC816D906C8F0F601E81B13
:10426000F90BCF0110E08436910538F5102F0023AB
:1042700009F4A8CF351310C024130EC086E0F7014F
:10428000A6EFB2E001900D928A95E1F7F1CE80950C
:1042900090958C0D9D1DE6CF4D875E878D859E8503
:1042A0000E941D1F811180CF8091FB02816080934D
:1042B000FB02C7010E94C21EDBCE7C2DD98AC88AB0
:1042C000602F89890E94211F8ECF002309F47ACFA5
:1042D0004D875E878D859E850E941D1F182F882320
:1042E00009F470CF86E0F701A6EFB2E001900D92DD
:1042F0008A95E1F786EF92E00E94781B0E946F1F7B
:1043000034CF81E08027D2CE1F93CF93DF93CDB7F8
:10431000DEB72C970FB6F894DEBF0FBECDBF4F832C
:10432000588769877A878B879C87CE0107960E947A
:10433000D31F882369F08A859B85892B39F04F81AB
:104340005885842F85238F3F09F071C016E05FC028
:1043500086E0FE013796DE01119601900D928A9556
:10436000E1F78A859B85892B89F388859F8189233D
:104370008F3F61F32091C50230E0C901019687703B
:1043800099274091C4024817190671F40E94FA1E39
:104390001092C5021092C40286E0E6EFF2E0DF015F
:1043A0001D928A95E9F7D2CF96E0929FD001939F14
:1043B000B00D1124AA53BD4FFE01319601900D920C
:1043C0009A95E1F78093C5020E94401FBFCF819F5D
:1043D000C00111248A539D4F0E94D31F8823E9F006
:1043E000E091C4021E9FF0011124EA53FD4F408169
:1043F000518162817381848195810E94301F8091F7
:10440000C40290E00196877099278093C40280913E
:10441000C4029091C5028913DACF2C960FB6F89496
:10442000DEBF0FBECDBFDF91CF911F91089569858B
:104430007A858B859C850E94301F88CFEF92FF92F2
:104440000F931F93CF93DF938C01892B81F0F12C75
:10445000EE24E394E8012196F8018491843770F406
:10446000843008F05FC08130B1F08230A1F1DF917B
:10447000CF911F910F91FF90EF900895853709F428
:104480004CC008F43DC09CE7980F903780F78F77B9
:104490000E94421C49C00E5F1F4FFE01849190E2B2
:1044A000980F983060F48770FE2D01C0FF0F8A9539
:1044B000EAF78F2F0E94B3240E94DC2402C00E94DE
:1044C0007D1B8F2D815030F2EFE9FFE03197F1F73E
:1044D00000C00000F7CF0E5F1F4FFE01849190E2F5
:1044E000980F983050F48770FE2D01C0FF0F8A9509
:1044F000EAF78F2F0E94B924DFCF0E94421CE1CF40
:104500000E5F1F4FFE01C491C150D8F28FE99FE0AA
:104510000197F1F700C00000F7CF0E5F1F4FFE01BB
:10452000F490CFCF0E947D1B8E01CBCF08950C94C9
:1045300096220E94972260931E0370931F0380931C
:104540002003909321030C94EC1E08950C9499225F
:104550000F931F9300911E0310911F0320912003BE
:1045600030912103602B712B822B932B1F910F9184
:104570000C9499220F931F9300911E0310911F0317
:104580002091200330912103602371238223932300
:104590001F910F910C9499220F931F9300911E036A
:1045A00010911F0320912003309121036027712770
:1045B000822793271F910F910C9499220C94962295
:1045C0000C94DE220E94E02260931A0370931B0376
:1045D00080931C0390931D030C94EC1E60E070E02C
:1045E000CB010C94E2220F931F9341E050E060E076
:1045F00070E08A019B0104C0000F111F221F331FAE
:104600008A95D2F7C901B8011F910F910C94E2224B
:104610000F931F9341E050E060E070E004C0440F4E
:10462000551F661F771F8A95D2F780911A039091C4
:104630001B03A0911C03B0911D038A019B01082B51
:10464000192B2A2B3B2BC901B8011F910F910C94F8
:10465000E2220F931F9341E050E060E070E004C05D
:10466000440F551F661F771F8A95D2F7CB01BA01F9
:10467000609570958095909500911A0310911B0399
:1046800020911C0330911D03602371238223932307
:104690001F910F910C94E2220F931F9341E050E081
:1046A00060E070E004C0440F551F661F771F8A95B5
:1046B000D2F780911A0390911B03A0911C03B09133
:1046C0001D038A019B01082719272A273B27C901B7
:1046D000B8011F910F910C94E2220F931F93009148
:1046E0001A0310911B0320911C0330911D03602BB2
:1046F000712B822B932B1F910F910C94E2220F931D
:104700001F9300911A0310911B0320911C033091F9
:104710001D0360237123822393231F910F910C9417
:10472000E2220F931F9300911A0310911B03209113
:104730001C0330911D0360277127822793271F9147
:104740000F910C94E2220895E92FEE0FE90FEE0F7E
:104750008E0F982F977041E001C0440F9A95EAF7A9
:1047600086958695869595E0899FF0011124E45001
:10477000FD4F30E020E070E05191DF011197CB0157
:10478000022E02C0969587950A94E2F78170819572
:104790008527842385278C932F5F3F4F2530310554
:1047A00059F70895E92FEE0FE90FEE0F8E0F982FAE
:1047B000977086958695869525E0829FF001112455
:1047C000E450FD4F50E040E080E0219130E0092EC0
:1047D00002C0369527950A94E2F721703327042EFC
:1047E00001C0220F0A94EAF7822B4F5F5F4F4530DA
:1047F000510559F70895BF92CF92DF92EF92FF9241
:104800000F931F93CF93DF938C01C0901A03D09026
:104810001B03E0901C03F0901D0380911E039091F8
:104820001F03A0912003B0912103C82AD92AEA2AA4
:10483000FB2ACFE1D0E0BC2ED701C6010C2E04C06C
:10484000B695A795979587950A94D2F780FD0EC0E7
:10485000219788F7B12C8B2DDF91CF911F910F916C
:10486000FF90EF90DF90CF90BF900895B8018C2F0C
:104870000E94EF0C019761F3EECFCF93DF93EC0131
:104880000E94FB23BE01DF91CF910C94EF0C1F938C
:10489000CF93DF93EB019091C302992331F0CB01C9
:1048A000DF91CF911F910C943D24882379F0CB01A7
:1048B0000E94FB23182F682FCE010E94A423BE0163
:1048C000812FDF91CF911F910C94EF0CCB010E94AF
:1048D000D223182FF4CF682F80916D0190916E0133
:1048E0000C942126682F80916D0190916E010C949B
:1048F000232680916D0190916E010C942526809164
:10490000220385958595859508958091220387706A
:10491000089590912203977081E009F480E0089552
:1049200080912E03089590912E03892B80932E035E
:104930000895809590912E03982390932E030895C7
:1049400010922E03089590912D03892B80932D03AF
:104950000895809590912D03982390932D030895A9
:1049600010922D03089590912C03892B80932C0392
:104970000895809590912C03982390932C0308958B
:1049800010922C03089580912303089508950C94A8
:10499000C62490912303981721F0809323030C944D
:1049A000C724089580912303882329F010922303BC
:1049B00080E00C94C7240895E0916D01F0916E01A0
:1049C00080912E038083E0916D01F0916E018081D2
:1049D00090912D03892B8083E0916D01F0916E0100
:1049E000808190912C03892B8083909123039923BC
:1049F00081F0E0916D01F0916E018081892B8083BF
:104A000080916D0190916E010E94E82581110E94B4
:104A1000D22480916D0190916E010C944D1A0895ED
:104A20000C940F2598E0899F90011124622B6093CC
:104A300022030E9408238091220385958595859500
:104A40000C9410251092220380E00C941025909174
:104A500022038095892380932203282F277071F4E5
:104A6000282F082E000C330B9217130639F085956A
:104A7000859585950E9429230C942225089590E020
:104A800080E00E94113321E08C3E9E4F09F020E02F
:104A9000822F089582E090E00C94033383E090E04D
:104AA0000C940333682F83E090E00C941733CF937A
:104AB00084E090E00E940333C82F81E290E00E94DE
:104AC0000333982F8C2FCF910895CF93C92F682F40
:104AD00084E090E00E9417336C2F81E290E0CF9148
:104AE0000C941733AB01BC018FE090E00C94293398
:104AF000AB01BC0183E190E00C94293360E070E0ED
:104B0000CB010C94782560E070E0CB010E94722507
:104B10000C947E256CEE7EEF90E080E00E943533B1
:104B200060E082E090E00E94173360E083E090E074
:104B30000E94173310921E0310921F03109220033D
:104B40001092210360E084E090E00E94173360E05F
:104B500081E290E00E94173360E085E090E00E94DF
:104B6000173360E086E090E00E9417336FEF87E034
:104B700090E00E94173340E050E0BA0188E090E0F6
:104B80000E94293360E08DE090E00E94173340E0FE
:104B900050E0BA0188E190E00E94293360E087E1AB
:104BA00090E00E94173340E050E0BA018CE190E0C1
:104BB0000E94293360E080E290E00E9417330C9459
:104BC00083250C948A25682F8EE090E00C9417338F
:104BD0009C012E5F3F4FAC01485F5F4F80E0241780
:104BE000350709F40895F90191919F019923B9F3CB
:104BF0008F5FF5CF9C01FC0132969FEF80E04191E1
:104C0000461751F09F3F19F4411101C0982F8F5F53
:104C10008630A9F79F3F09F40895290F311D97FDAC
:104C20003A95F90162830895FC0132960896219124
:104C3000261303C0DF0111971C92E817F907B9F793
:104C400008950C94FA250C941426029626E0FC0193
:104C500011922A95E9F70895089508950C942D2648
:104C60000E942E2680912904843049F1109230034D
:104C700088E190E020E40FB6F894A8958093600056
:104C80000FBE2093600080E00E94530C0E942E26ED
:104C900083B7817F846083BF83B7816083BF78944B
:104CA000889583B78E7F83BF0FB6F894A8958091BF
:104CB0006000886180936000109260000FBE0895CC
:104CC0000895CF930E942C260E9431090E946026ED
:104CD000C0E08C2F0E949809811105C0CF5FC830B9
:104CE000C1F7CF91089581E0FCCF08950C9475260B
:104CF0000E94FA1E0E94411A0E94530C0C947626C0
:104D00001F921FB61F9211248F939F93AF93BF934F
:104D100080913003811113C080911F049091200471
:104D2000A0912104B09122044196A11DB11D809350
:104D30001F0490932004A0932104B0932204BF91F8
:104D4000AF919F918F911F901FBE1F90189582E089
:104D500084BD93E095BD9AEF97BD80936E00089552
:104D60002FB7F89480911F0490912004A091210402
:104D7000B09122042FBF0895CF92DF92EF92FF925D
:104D80000F931F932FB7F89440911F045091200464
:104D900060912104709122042FBF6A017B01EE24EF
:104DA000FF248C0130E020E0C016D106E206F306B5
:104DB00050F0481B590BCA011F910F91FF90EF90C3
:104DC000DF90CF90089541505109F3CF78941F920E
:104DD0001FB61F9211248F939F93AF93BF9380911F
:104DE0001F0490912004A0912104B0912204019607
:104DF000A11DB11D80931F0490932004A093210452
:104E0000B0932204BF91AF919F918F911F901FBECD
:104E10001F90189587E797E7909301088093000803
:104E200088E19AE00FB6F894A895809360000FBED1
:104E300090936000FFCF0E943F25811102C00E9425
:104E4000E1250E944A2580932F030E9457259093C5
:104E50002404809323040E944E25682F70E090E084
:104E600080E00C94A6228091340380FF12C06091F0
:104E7000720185E0689FB00111247595679575955D
:104E8000679560387105A8F561157105A1F1862F48
:104E9000089581FF09C06091720185E0689FB001AB
:104EA000112475956795EDCF6091720182FD0AC05E
:104EB000809133038823D1F0909171016091720148
:104EC000891728F085E0689FB0011124DACF869F0A
:104ED000B001112485E0869F9001879F300D112439
:104EE000692F70E0C9010E94FB2FCBCF65E070E015
:104EF000CECF8FE7089581E008958091340380FF3D
:104F00000CC06091700170E0759567957595679517
:104F10006115710549F1862F089581FF06C06091E2
:104F2000700170E075956795F3CF6091700182FD17
:104F30000BC0909133039923A1F060916F01809190
:104F40007001961738F0682F70E06038710500F333
:104F50008FE70895899FC001112470E00E94FB2F04
:104F6000F4CF61E070E0D7CF81E00895803F31F465
:104F70000E9433278195809338030895813F19F467
:104F80000E943327F8CF823F31F40E943327819566
:104F9000809337030895833F19F40E943327F8CF95
:104FA000893F29F40E947D278093390308958A3F21
:104FB00021F40E947D278195F7CF8B3F31F40E9429
:104FC0007D27819580933A0308958C3F19F40E94C0
:104FD0007D27F8CF843F31F4809136038160809340
:104FE00036030895853F21F4809136038260F7CF20
:104FF000863F21F4809136038460F1CF873F21F40E
:10500000809136038860EBCF883F21F4809136038E
:105010008061E5CF8D3F31F48091340381608093CE
:10502000340308958E3F21F4809134038260F7CFDA
:105030008F3FB9F7809134038460F1CF90913703AB
:10504000803F41F48091380387FD10923803992303
:1050500071F00895813F29F4809138031816ACF35C
:10506000F6CF823F81F497FFF2CF10923703809101
:10507000380390913903892B90913A03892B49F792
:10508000109233030895833F19F4191674F3DFCF98
:10509000893F39F4809139031816CCF61092390300
:1050A000D6CF8A3F29F48091390387FFD0CFF6CF3E
:1050B0008B3F39F480913A0387FFC9CF10923A03AE
:1050C000C6CF8C3F29F480913A031816BCF3BFCFAA
:1050D000843F31F4809136038E7F80933603B7CFBF
:1050E000853F21F4809136038D7FF7CF863F21F4F1
:1050F000809136038B7FF1CF873F21F48091360377
:10510000877FEBCF883F21F4809136038F7EE5CFF8
:105110008D3F31F4809134038E7F8093340397CF99
:105120008E3F21F4809134038D7FF7CF8F3F09F0BC
:105130008ECF809134038B7FF0CF85E393E00E9484
:10514000581A0E94B0269093320380933103089539
:105150001F93CF93DF9380913103909132030E948C
:10516000BC26AC01909133032091730130E0911182
:1051700006C0209174018AE0289F900111244217F3
:10518000530778F020913703C0913803D091390349
:1051900010913A03211109C08C2F8D2B812B09F01E
:1051A0006AC0DF91CF911F9108959F3F19F09F5FD3
:1051B00090933303121624F40E943327809337030D
:1051C0008091370387FF05C00E9433278195809324
:1051D00037031C1624F40E943327809338038091F0
:1051E000380387FF05C00E943327819580933803D9
:1051F000309137033323A1F020913803222381F02B
:1052000045EB3403C0011124992369F190933703CE
:1052100045EB240390011124332349F130933803E3
:105220001D1624F40E947D27809339038091390351
:1052300087FF05C00E947D27819580933903111651
:1052400024F40E947D2780933A0380913A0387FFDC
:1052500005C00E947D27819580933A03DF91CF910D
:105260001F910C949D2881E080933703D1CF81E07A
:1052700080933803D5CF9F3F09F099CFAACF86E01E
:10528000E5E3F3E0DF011D928A95E9F7109233031D
:105290001092340308958091430308950895CF93A5
:1052A000DF93EC010E942B2B823011F08430F9F453
:1052B00082E08093E9008FEF9091E800815095FDA6
:1052C00006C095ED9A95F1F700008111F5CF809118
:1052D000E80085FF0CC050E040E066E070E0CE01E1
:1052E0000E94482B8091E8008E778093E800DF9140
:1052F000CF910895CF93DF93EC010E942B2B823046
:1053000011F0843039F581E08093E9008FEF9091BE
:10531000E800815095FD06C095ED9A95F1F70000E3
:105320008111F5CF8091E80085FF14C050E040E086
:1053300068E070E0CE010E94482B8091E8008E77F3
:105340008093E80088E0FE01ABE3B3E001900D92AA
:105350008A95E1F7DF91CF9108950895809128040F
:10536000811109C00E94D82C0E94352D8091E20045
:1053700084608093E20008951092280408950895AF
:1053800008950C94782642E061EC81E00E94542C50
:1053900042E261EC82E00C94542C80912B04833027
:1053A00009F45FC030F48130C1F1823009F49BC050
:1053B00008958A3009F487C08B3009F46DC08930B4
:1053C00009F04EC080912A04813209F049C08091D1
:1053D0002E0490912F04029708F042C08091E800BB
:1053E000877F8093E8008091E80082FF35C090912C
:1053F000F3008091F200029729F48091F1008B7FF5
:10540000813021F48091F100809343038091E80082
:105410008B778093E8000C94882C80912A04813A41
:10542000F9F48091E800877F8093E80080912E0452
:1054300090912F04892B61F468E08BE393E070E096
:105440000E94972B8091E8008B778093E800089565
:1054500060E090E080E0F3CF809129048111C3CF18
:10546000089580912A04813AD9F780912E04909171
:105470002F04892BA9F78091E800877F8093E800AB
:105480008091E80080FFFCCF80917F018093F10044
:105490008091E8008E77BDCF80912A04813201F798
:1054A00080912E0490912F04892BD1F68091E800F1
:1054B000877F8093E8000E94882C80912C04809341
:1054C0007F010C94FA1E80912A04813249F6809162
:1054D000E800877F8093E8000E94882C80912D044B
:1054E00080934403089580912A04813A09F0B8CF4B
:1054F0008091E800877F8093E8008091E80080FF3A
:10550000FCCF80914403C2CF84B7877F84BF0FB69E
:10551000F894A89580916000886180936000109253
:1055200060000FBE80E890E00FB6F89480936100B1
:10553000909361000FBE0E94A01A0E94D82C0E9476
:10554000352D8091E20084608093E20078940E947F
:10555000BE2F0E94A81A85E791E00E943C1A809114
:105560002904853019F00E94B21AF9CF0E94302622
:1055700080912704882399F30E946126882379F378
:105580000E94322BECCF0C94C52A292F33272330CD
:10559000310519F168F42130310509F44AC022308F
:1055A000310509F44BC090E080E030E020E028C0F5
:1055B0002132310579F122323105A9F780E490E0FA
:1055C0002BE63AE061157105D9F08FE490E02CE10B
:1055D0003AE061307105A1F0E6CF9927813091055D
:1055E00099F0009741F08230910589F00397D9F640
:1055F000E3E8F9E002C0EBECF9E0849190E09F0170
:10560000FA01318320830895E9EBF9E0F6CFE9E868
:10561000F9E0F3CF89E090E021EE39E06115710502
:1056200079F389E090E02AEF39E06130710541F3C8
:10563000BACF82E190E02AE03AE0E2CF8BE390E05B
:105640002FEC39E0DDCF80912904843011F482E021
:10565000089581E0089580914503811102C00C9462
:10566000232B089580E189BD82E189BD09B400FE44
:10567000FDCF8091D8008F7D8093D8008091E0008D
:1056800082608093E0008091E00081FDFCCF08956E
:10569000AF92BF92CF92DF92FF920F931F93CF935F
:1056A000DF936C01EB018A010E94A72CF82E811177
:1056B00023C00115110539F0F80180819181C81BC3
:1056C000D90BC80ED91EB12CA12C2097A9F080911E
:1056D000E80085FD22C08091E8008E778093E80085
:1056E00001151105A1F0F80180819181A80EB91E64
:1056F000B182A08285E0F82E8F2DDF91CF911F918E
:105700000F91FF90DF90CF90BF90AF9008950E94CF
:10571000A72C8823D1F2F82EEFCFF60181916F01EB
:105720008093F1002197FFEFAF1ABF0ACECFFC01A3
:10573000809130049091310486179707A0F061158D
:10574000710529F49091E8009E779093E80090E02D
:105750006115710551F4911108C08091E80082FF34
:1057600034C080E00895BC01F2CF809129048823E1
:10577000C1F18530C1F18091E80083FD30C0809196
:10578000E80082FDEACF8091E80080FFE1CF8091C0
:10579000F3002091F200382F6115710519F02830BF
:1057A000310558F091E02830310509F090E0209162
:1057B000E8002E772093E800CBCF81918093F10011
:1057C000615071092F5F3F4FE7CF809129048823F3
:1057D00041F0853041F08091E80083FFBECF81E049
:1057E000089582E0089583E00895FC0180913004DB
:1057F0009091310486179707A0F06115710529F47F
:105800008091E8008E778093E80090E06115710543
:1058100051F4911108C08091E80082FF35C080E00A
:105820000895BC01F2CF809129048823C9F1853005
:10583000C9F18091E80083FD31C08091E80082FDCC
:10584000EACF8091E80080FFE1CF8091F3002091C2
:10585000F200382F6115710519F02830310558F024
:1058600091E02830310509F090E08091E8008E77D2
:105870008093E800CBCF84918093F1003196615002
:1058800071092F5F3F4FE6CF80912904882341F0B3
:10589000853041F08091E80083FFBDCF81E008951D
:1058A00082E0089583E00895982F973028F08F7054
:1058B0008093E90081E008959093E900242F762FEA
:1058C00050E0981731F07091EC002091ED0050916C
:1058D000F00021FD02C09F5FE8CF3091EB003E7FDA
:1058E0003093EB003091ED003D7F3093ED0030912F
:1058F000EB0031603093EB007093EC002093ED00EF
:105900005093F0002091EE0027FDE5CF80E0089550
:1059100080912A0487FF13C08091E80082FF06C0AF
:105920008091E8008B778093E80004C0809129047F
:105930008111F2CF0895809129048823D9F38091B1
:10594000E80080FFF8CF8091E8008E77ECCF2091BF
:10595000E4003091E50095E6A9012091EC00822F4A
:10596000817020FF06C08091E80080FF06C080E0C3
:1059700008952091E80022FD1AC08091290488230F
:1059800089F0853089F08091EB0085FD0FC0209172
:10599000E4003091E50042175307F9F29150E1F627
:1059A00084E0089582E0089583E0089581E00895F9
:1059B0000E94462D0E944E2DE0EEF0E08081816035
:1059C0008083E8EDF0E080818F77808319BCA7EDBC
:1059D000B0E08C918E7F8C9380818F7E808310923B
:1059E000280408950F931F93CF93DF930E94462DB1
:1059F0000E944E2DC8EDD0E088818F778883888102
:105A00008068888388818F7D888319BC10922904DF
:105A100010922504109227041092260400EE10E044
:105A2000F80180818B7F808388818160888342E058
:105A300060E080E00E94542CE1EEF0E080818E7FF7
:105A40008083E2EEF0E080818160808380818860E5
:105A50008083F80180818E7F808388818061888344
:105A6000DF91CF911F910F910895E8EDF0E08081D3
:105A70008F7E8083E7EDF0E080818160808384E029
:105A800082BF81E0809328040C94F22CE8EDF0E0D2
:105A900080818E7F80831092E20008951092DA0058
:105AA0001092E10008951F920F920FB60F921124E9
:105AB0002F933F934F935F936F937F938F939F9316
:105AC000AF93BF93EF93FF938091E10082FF0BC0F0
:105AD0008091E20082FF07C08091E1008B7F80937C
